:020000040000FA
:10000000A8020010BD010000C5010000C7010000EA
:1000100000000000000000000000000000000000E0
:10002000000000000000000000000000C901000006
:100030000000000000000000CB010000CD01000026
:10004000CF010000CF010000CF010000CF01000070
:10005000CF010000CF010000CF010000CF01000060
:10006000CF010000CF010000CF010000CF01000050
:10007000CF010000CF010000CF010000CF01000040
:10008000CF01000085150000CF010000CF01000066
:10009000CF010000E9150000CF010000CF010000F2
:1000A000CF010000CF010000CF010000CF01000010
:1000B000CF010000CF010000CF010000CF01000000
:1000C00000F002F800F04EF80CA030C808382418F0
:1000D0002D18A246671EAB4654465D46AC4201D180
:1000E00000F040F87E460F3E0FCCB6460126334264
:1000F00000D0FB1AA246AB4633431847101D000040
:10010000301D0000103A02D378C878C1FAD85207DF
:1001100001D330C830C101D504680C6070470000BD
:100120000023002400250026103A01D378C1FBD813
:10013000520700D330C100D50B60704710B5662957
:1001400002D101F0E5FD10BD002010BD1FB500F08B
:10015000B7FD04000020002101F068FDE0601FBD34
:1001600010B510BD01F03CF91146FFF7EFFF01F0AB
:1001700083FC01F054F903B4FFF7F2FF03BC01F074
:10018000CBF9000070B505460C46164602E00FCCD0
:100190000FC5103E102EFAD2082E02D303CC03C591
:1001A000083E042E07D301CC01C5361F03E0217899
:1001B0002970641C6D1C761EF9D270BD07488047FB
:1001C00007480047FEE7FEE7FEE7FEE7FEE7FEE73B
:1001D00004480549034A054B70470000FB02000034
:1001E000C1000000A8000010A8020010A800001024
:1001F0000FB41CB5074B06AA7B44694600900598CE
:1002000000F0CBFC0020694600F0DAFC1CBC08BC06
:1002100004B01847C5090000F8B5042A2CD3830799
:1002200012D00B78491C0370401C521E83070BD060
:100230000B78491C0370401C521E830704D00B78B6
:10024000491C0370401C521E8B079B0F05D0C91A16
:10025000DF002023DE1B08C90AE0FFF793FFF8BD8B
:100260001D4608C9FD401C46B4402C4310C0121F57
:10027000042AF5D2F308C91A521EF0D40B78491C8F
:100280000370401C521EEAD40B78491C0370401CBA
:10029000012AE4D409780170F8BD704770477047AF
:1002A0001F22030C02D10F22000402D0030E03D040
:1002B00004E00020014670470002083A030F01D114
:1002C0000001121F830F01D18000921E002801DB64
:1002D0004000521E120551184205C0124118104626
:1002E0007047C10FC90700D0404201229207114355
:1002F000D6E701218907D3E770477047FFFFFFFF6B
:10030000F3B50446002081B020622046E1688847AA
:1003100000287AD0252802D06268A16871E0E168DF
:1003200020460025884706460020E0610746A06178
:100330002A2E0AD0304601F071FA002827D0B800E2
:100340000019303E0090866119E00298BA00121937
:1003500002C8916102902046E1688847012F064655
:1003600017D1E06900281FDA202085431CE000989F
:100370000A218069484300998019303888612046F5
:10038000E1688847064601F049FA0028EFD1012FBD
:100390000AD02E2E08D12046E16888470646202044
:1003A00005437F1C022FC3DBA069002803DA40420B
:1003B000A06101200543E80701D010208543002EED
:1003C00023D030464138192803D80120C002054304
:1003D0002036204625603146029A1546FFF7AEFECC
:1003E00000280BD0012806D0ED1DE808C000083019
:1003F00002908AE709E02D1D029586E76268304683
:10040000A1689047206A401C7EE7206AFEBD00225A
:1004100003098B422CD3030A8B4211D300239C4641
:100420004EE003460B433CD4002243088B4231D3B9
:1004300003098B421CD3030A8B4201D394463FE04D
:10044000C3098B4201D3CB01C01A524183098B42AD
:1004500001D38B01C01A524143098B4201D34B0196
:10046000C01A524103098B4201D30B01C01A5241F9
:10047000C3088B4201D3CB00C01A524183088B4280
:1004800001D38B00C01A524143088B4201D34B0069
:10049000C01A5241411A00D20146524110467047DB
:1004A0005DE0CA0F00D04942031000D340425340E0
:1004B00000229C4603098B422DD3030A8B4212D3A0
:1004C000FC22890112BA030A8B420CD389019211D2
:1004D0008B4208D3890192118B4204D389013AD00F
:1004E000921100E08909C3098B4201D3CB01C01AE4
:1004F000524183098B4201D38B01C01A52414309F7
:100500008B4201D34B01C01A524103098B4201D3E4
:100510000B01C01A5241C3088B4201D3CB00C01A51
:10052000524183088B4201D38B00C01A5241D9D269
:1005300043088B4201D34B00C01A5241411A00D2EA
:100540000146634652415B10104601D34042002BE6
:1005500000D54942704763465B1000D3404201B565
:100560000020C046C04602BD0121C9050123411833
:1005700042001B06D3185B0E0AD0C1100722D20618
:10058000891840075242D14201D55200891870475C
:10059000090208D50146002A03D0C10FC90700206F
:1005A000704710467047420202D00020024970474F
:1005B000072109050143F4E70000F87FF0B5FF25A6
:1005C0002D04C609C209FF2704462E400137CB0976
:1005D0003E4348402A402B400746002A6BD0002B60
:1005E00069D0AA4267D0AB4265D0002800DA324613
:1005F0000125ED0529432C4309022002090AD21ADC
:100600004B0C7F24E31A434C000A7C44E35C7D24BA
:100610002404121914145B00A218884201D3521C3E
:1006200000E0400049420C465C4324115C43DB017E
:100630006415E318040A5C43C502200D0C464443CC
:100640006419250A5D432303EC0C0D466543000342
:100650000019EB184C42A34201D35B18401CD4058F
:100660002018002B07D05B00C91804D3401C0029B8
:1006700001D1400840003F2189048A4209D3002A61
:1006800008DC1106090F04D0032149074018C00FE8
:10069000C007F0BD01224100120689187F225206D0
:1006A0009142F6D205214907C84201D59010F0BD0C
:1006B000FF20C005F0BD002F00DA32461648AA42DE
:1006C00007D2AB4205D21902090E17D0F80FC007A6
:1006D000F0BDFF2563002D06AB42F9D84900A942C1
:1006E000F6D8AB4201D1A942F2D0A94201D10021F2
:1006F00001E061004908D0050843F0BD1102090E70
:10070000FBD0FF200243D005F0BD0A46014610464B
:1007100054E70000281700000000C07F1F22030CD0
:1007200002D10F2200041CD0030E01D10002083AAE
:10073000030F01D10001121F830F01D18000921E0F
:10074000002801DB4000521ED20551180212511838
:100750001922904004D3491C002801D149084900BE
:1007600008467047C10FC90700D0404201229207D6
:100770001143D3E701218907D0E700007047FFB597
:100780000C461E468FB003CA089009914F007D0D9C
:1007900000D16D1E002108460020C0460321099AA1
:1007A00089050840002A03DA8200801840080840C2
:1007B000800D01280A9002DD0020C0430A900898AD
:1007C00007430DD0EF48F0492818484307141898FC
:1007D00000281DD07542291E1DDD0A9842421BE0EB
:1007E0001898012802D00020302104E00020F243B4
:1007F00005E02154401CB042FBDB30460022189B30
:10080000002121540F998B600A60486013B0F0BD3D
:10081000BD1B6D1CDFE70A9A002900DA69420BA8AC
:1008200000F0D4FA0BAB07CB03AB07C308990998C8
:1008300000F030FB6B4607C30146D4480918002D71
:1008400000910ADDD14903980A9A4942401803A948
:100850000390684600F051FD07E003990A9A0818D2
:1008600003A90390684600F010FD6B4607C300041F
:10087000000C03D00020C043410800E01046189A45
:10088000002A03D00022009215461EE0751E05D4F2
:1008900000F01AFA303262556D1EF9D50122084374
:1008A000079602D000227F1C04E02078302801D176
:1008B00000227F1E002A069789D01EE0112D07DA3C
:1008C00000F002FA303262556D1C02460A43F5D13F
:1008D000084303D00098002819D00EE00021681EBC
:1008E00005E0235C625C63542254401E491C814233
:1008F000F7DBA81B401E07950690079A1899002061
:10090000A0540F98079B069A81600CC07EE71126C1
:10091000002018905BE7D21DF0B50D460446D108C3
:1009200093B0C90003C90C900D9100F019FF024665
:100930000D98C00F01D02D2007E02068810701D558
:100940002B2002E04007C00F4001032A0F9001D086
:10095000072A05DB03462946204600F0F3F90EE19D
:100960002078800601D5E76900E006272846652D36
:1009700004D0662814D0672D69D12DE00020112FF6
:10098000009001DB112300E07B1C0CAA03A910A836
:10099000FFF7F5FE1199002610987D1C0E9142E09C
:1009A00001203B460CAAC0070B900120009003A930
:1009B00010A8FFF7E4FE119D129810990026002858
:1009C0000E9501D1781C0D18781B02D446427D1C6F
:1009D000761EE81B00903AE0012F00DA0127002084
:1009E000112F009001DD112300E03B460CAA03A962
:1009F00010A8FFF7C4FE11993D46109800260E91ED
:100A0000217809070BD40E99A94200DA0D4603A9F3
:100A1000012D04DD4A19203AD27F302A06D0B8428F
:100A200001DA011D04DA012100910FE06D1EEFE7EC
:100A3000002802DC86192D1A03E0411CA94200DDC2
:100A40000D46801B401C00900120C0070B902078B1
:100A5000000705D40098A84202DB0020C0430090A4
:100A600069460020C8720B98012102AF0337C907FD
:100A7000884225D0022010902B2011900B9800283E
:100A80000BDA40420B902D20119006E00B9800F0FD
:100A900065FC30317F1E0B9039701099481E00297B
:100AA0001090F3DC0B980028F0D111987F1E38705D
:100AB0002088000501D5452000E065207F1E3870A4
:100AC00001A8C01BC01D0B900F98002800D001206A
:100AD00041190098C01709180B980818A169081A3D
:100AE000401EA0612078C00602D42046C046C04601
:100AF0000F98002805D06268A1689047206A401CC2
:100B000020622078C00625D52046C046C04621E098
:100B1000002E07DB0E98B04204DD03A86268805DFA
:100B2000A16802E06268A16830209047206A761CC4
:100B3000401C20620098401E002800900AD100F05E
:100B4000BFF8C06862680168405CA1689047206A8D
:100B5000401C206228466D1E0028D9DC07E0626830
:100B60003878A1687F1C9047206A401C20620B994E
:100B7000481E00290B90F2DC2046C046C0460320E8
:100B800044E6000001FCFFFF104D0000E1DFFFFF25
:100B900001694A1C02610878704700B58FB0029164
:100BA0000021059105490193794403911146049070
:100BB0006846FFF7A5FB0FB000BD0000E5FFFFFF93
:100BC0000A681070521C0A6070470000F8B5224C89
:100BD0004E00069DA6420AD8A64201D1002806D1A1
:100BE0005E00A64203D8A6420AD1002A08D00D24EE
:100BF000240425422CD02946002000F0C3FBF8BD78
:100C00000C461C430CD4994202D0EFF30080F8BD8F
:100C1000904202D0EFF30080F8BDEFF30080F8BD02
:100C200009242407E5008B4206D0EFF30080A0439F
:100C3000591A06D2284304E0101A05D3EFF30080B6
:100C4000A04380F30088F8BDEFF30080A043F1E7F4
:100C5000009500F0AFFBF8BD0000E0FF10B5FF23EA
:100C60001B0644009C421DD84C009C421AD80346E7
:100C7000124A0B4307D4401A02D3EFF3008010BD91
:100C8000EFF3008010BD081A06D2EFF300800121B7
:100C90009043C907084302E0EFF30080904380F3DC
:100CA000008810BD0D231B041A4204D011460020F9
:100CB00000F068FB10BD00F087FB10BD0000009045
:100CC00000487047680000100B4670B5024689075F
:100CD0008008084319469D08141AA94125090807E8
:100CE000054308092C194841250A01060D43010A4C
:100CF0002C194141200C0D0428430D0C00194D41C5
:100D0000002140194D41C00869070843E908840FD4
:100D10008D002543840024184D4124196D41121B78
:100D2000AB4107E00925ED432C1152196341002422
:100D3000401C61411C460A250026551BB441F1D2D6
:100D400070BD0000F8B51F46044601230068DB02B1
:100D5000032601461840072A05DB002801D017A505
:100D600006E017A504E0002801D016A500E016A5AE
:100D7000102081432160A069C01E002FA06101D016
:100D8000401EA0612046C046C046002F09D038460C
:100D90006268A1689047206A401C2062C01C2062E3
:100DA00006E0206AFAE762682878A1686D1C90471F
:100DB000761EF8D22046C046C046F8BD4E414E00D1
:100DC0006E616E00494E4600696E6600F7B51646C4
:100DD0008AB02F4878446C4603467C33C06F5A680B
:100DE0009B680DC42A487844763003AC0DC80DC406
:100DF0003720C001081837211B30FFF712FB0546CA
:100E00000C46803D1B3C02D56442012000E00020DE
:100E1000002709900FE0E0070BD00C201C49784315
:100E2000794432464C394118684600F02EFA6B4638
:100E300007C364107F1C002CEDD1154F7F442C3F5D
:100E400015E0E80711D02001C0190EC806910893DB
:100E500007920068F04201D198190890324606A91D
:100E600003A800F012FA03AB07C36D10641C002D39
:100E7000E7D1324669460998002803A802D000F05D
:100E80003CFA01E000F001FA0A9B07C30DB0F0BD87
:100E9000A00F0000034640000A4610B5400D0BD0DD
:100EA0000121C9070F24A40200191C03640821436F
:100EB000540D2143D20207E000210120F2E7D40FB4
:100EC000490021435200401E0029F8DADB0FDB07FE
:100ED000184310BDFFB50D46144685B048685168EB
:100EE00000F018FC00910190A868A16800F012FCC5
:100EF00002910390A868616800F00CFC029A121835
:100F00008242029201D2012000E00020019A0B18D7
:100F1000D2180028019202D08A4202D903E08A4204
:100F200001D2012000E000200099081800906868B4
:100F3000A16800F0EFFB029A12188242029201D2DD
:100F4000012000E00020019A0B18D218002801921D
:100F500002D08A4202D903E08A4201D2012000E095
:100F60000020009908180090286821684000490076
:100F7000400849084018F549471814E00199400015
:100F8000C90F08430090019802994000C90F084317
:100F90000190029803994000C90F084302900398FA
:100FA00040007F1E039000980028E7DA0898002888
:100FB00001D0E74E00E00026B74228DAF71BF8061A
:100FC000C00E15D0029B2021091A039A8B401A43A8
:100FD0000392029A019BC2408B401A430292019AEB
:100FE000009BC2408B4000991A430192C14000917E
:100FF0007A110BD06B460320811A01D5002101E044
:10100000890059588700401ED951F5D537460398B5
:101010000299002800D0012001430898029100287D
:1010200008460CD0002800D001200199019A4905FA
:1010300008430121D20AC902D202019200E0012133
:101040000E9B0122D207012B02D0002B03D013E00C
:10105000002807D116E0904204D890420CD1019BA1
:101060000B4209D0019B5918019105D10099491CE7
:10107000009101D17F1C0092002803D01021084666
:101080000020C04628682168019B009A4840C10F93
:101090000598C90739430EC009B0F0BDFFB587B048
:1010A000099A089808995368926840688968964632
:1010B0000022039317469446089A12685300099A2F
:1010C0005B081268520052089A1AA24BD4180A9A66
:1010D000002A01D0352200E040220692002201239E
:1010E00015460492DB07059324E0002D05D17546D3
:1010F0000346039E4D1BB34109D375466646039BC9
:10110000491B049D9841059B7519AC465F41634698
:101110003B4308D0059B049EDD0776082E435B0801
:101120000496059301E0521E641EC50FED07491891
:101130004041521C069B9A42D7DB002D04D17546D4
:10114000039A6B1A824101D203200CE0039A0B46EA
:101150006B404240134303D0014303D0012002E01F
:10116000022000E0002061460191002100970291D9
:101170000A99002905D0614640020143744B019150
:1011800002E08007002302909C423ADA1A1BD00644
:10119000C00E15D0029D2021019C091AC5408C402B
:1011A0002543029C8C4000D001242543019C0295DC
:1011B0003D46C4408D4039462C43C14001940091C6
:1011C00054111DD06D460221002202290CD10320AA
:1011D000001B07E0002804DB8600AE59002E00D07B
:1011E0000122401C0328F5DB081B02D588002A5089
:1011F00004E08000285810438A00A850491EE3D517
:101200001C460A98002802980CD0002800D0012023
:101210000199019A490508430121D20AC902D20263
:10122000019200E00121109B0122D207012B02D084
:10123000002B03D013E0002807D116E0904204D819
:1012400090420CD1019B0B4209D0019B591801918E
:1012500005D10099491C009101D1641C009200281D
:1012600003D0102108460020C04608980999019A29
:101270000068096848400099C30F0798DB072343BB
:101280000360826041600BB0F0BD1FB50023009287
:101290000A46014601A8FFF71DFE01AB07CB04B0CB
:1012A00010BDF0B585B0012300920A46014601A8A1
:1012B000FFF710FE01990F2202989202CF0F49000A
:1012C000039E49088C1AFF070021002800DB0C460A
:1012D000450021486D08844206D30D460E4604465B
:1012E000102108460020C0462005E90A0843690588
:1012F0003843F20A05B01143F0BD1FB50023009238
:101300000A46014601A8FFF7C9FE01AB07CBC6E7B5
:101310001FB5012300920A46014601A8FFF7BEFE51
:1013200001AB0F2407CBA402C30F4000DB0740082A
:10133000001B002900DB0020490000054908CC0AF9
:10134000204349051843D20A1143A8E702C0FFFF12
:10135000013C0000FF3F0000FF070000014680083D
:10136000081A02091018020A1018020C1018C008F6
:10137000820012185200891A01E0401C0A390A2919
:10138000FBD27047C80212D54803400F002804D092
:10139000C803C043012188407047EFF3008000017B
:1013A000000903210907084380F3008870470020E3
:1013B0007047000010B500200249029A00F07CF846
:1013C00010BD00000000F87F10B5024800F074F86E
:1013D00010BD00000000C07F0048704748000010AA
:1013E0007546FFF7F9FFAE46050069465346C0084B
:1013F000C000854618B020B5FEF7EAFE60BC0027A5
:101400004908B6460026C0C5C0C5C0C5C0C5C0C5D0
:10141000C0C5C0C5C0C5403D49008D46704710B528
:101420000446C046C0462046FEF7A5FE10BD00009B
:10143000024670B50A4392072AD11E4DEE0104C838
:1014400008C9541B9443344017D0D0B2D9B2401AC3
:101450002106014310D190B299B2401A21040143F0
:101460000AD110021902000A090A401A2102014396
:1014700002D1100E190E401A70BD9A42DFD010BA78
:1014800019BA884201D9012070BD0020C04370BD47
:1014900002780B78401C491C002A09D09A4207D1D7
:1014A00002780B78401C491C002A01D09A42EFD0E8
:1014B000D01A70BD0101010110B50C461107090FCA
:1014C000092904D00A290AD008290CD104E01146C0
:1014D0000820FFF757FF06E0510606D501E0510648
:1014E00001D50120C007214610BDD10607D5010155
:1014F0000909CC084907000E0006044309E0410F22
:1015000020024907000A0143200E00061D22D14196
:1015100001430846E7E7000001491820ABBEFEE79B
:10152000260002000C480068402108430A49086070
:1015300002200A4988630A48806B102188430849C1
:10154000886305480068012149030843024908608F
:1015500004480549086070478080044040400440CA
:10156000008204400207000000C0014003480068F8
:101570000349084301490860704700000080025099
:10158000FF01000006480088002804D004480088B5
:10159000401E03490880012002490860704700008E
:1015A000080000100000014010B50C480068FF2141
:1015B000013108430949086009480A49C860012007
:1015C00048610A208861012048600860112000F00D
:1015D000DDF80121112000F0E5F810BD8080044005
:1015E0001F030000000001401D488068C007C00FB5
:1015F000002834D11A4880680E210840042802D0FF
:101600000C282AD113E00020164908700AE014487B
:1016100000681549134A1278885412480078401C13
:10162000104908700F4800780828F0DB16E00AE03F
:101630000B4800680C490B4A127888540948007816
:10164000401C0849087006484069C007C00F0028C0
:10165000EED101200549087000E000BF00BF7047CF
:101660000080004007000010200000100200001061
:1016700070B5244800680121090408432149086025
:101680002148406A012108431F4948620846806A90
:10169000012108431C4988621A4800680121090396
:1016A0000843184908600120886183201749C860F1
:1016B000144881691648FEF7AAFE05094B21C901A5
:1016C0002846FEF7A4FE84B22046E117090E091849
:1016D00009120E4A5160E117090E09180912090290
:1016E000611A116003201146C860872088601520A8
:1016F00000F04CF80121152000F054F801200349B6
:10170000486070BD808004408040044000800040FC
:10171000006CDC02F8B5040C8BB2264682B25E4344
:10172000104658430D0C370C36040021801916461C
:1017300079416E43370C36048019264679416E4351
:101740008919F8BD30B47446641E2578641CAB4218
:1017500004D3635D5B00E31830BC18471D46F8E70F
:101760004900CA020243100000D004204A0D01D0F3
:1017700001221043044A490D914201D1022108433C
:10178000012800D105207047FF070000002805DB75
:10179000C206D20E01219140014A1160704700003B
:1017A00000E100E010B5002819DB1A4A03231B02F0
:1017B000D21883089B00D2588307DC0EFF23A34076
:1017C0009A438B071B0E8407E40EA3401A43114B68
:1017D000032424021B198408A4001A5118E00E4A9D
:1017E00003071B0F083B9B089B00D2588307DC0EA6
:1017F000FF23A3409A438B071B0E8407E40EA340EC
:101800001A43054B0407240F083CA408A4001A51EE
:1018100010BD000000E100E01CED00E030380A28B7
:1018200001D201207047002070470000FEB500245F
:10183000002513E0274800680121090608432549CF
:10184000086000BF23484069C00FC0070028F9D0D6
:10185000204846693004860DA4196D1C0A2DE9D371
:101860000A212046FEF7D3FD04461B496143084682
:10187000FEF780FF19490190FEF7A0FE07461849C0
:10188000FEF79CFE1749086000F07CF9242C1BD958
:101890002046FEF72EFD144A144B0191009000F0F3
:1018A000DBF911D2012012490870FF20F53000F059
:1018B0005FF900F025F80F4800F05AF900F020F821
:1018C00001200D49087004E00020094908700B4907
:1018D0000870FEBD00C001408813000000C07F44B6
:1018E000000020411C0000106666666666A6424045
:1018F00005000010DC0500000600001004000010C8
:101900000C48C06B082108430A49C8630846C06BED
:10191000102108430749C8630846C06B20210843CB
:101920000449C8630846C06B402108430149C863A5
:1019300070470000C03F02500348C06B0421884339
:101940000149C86370470000C03F02500348C06BA4
:10195000042108430149C86370470000C03F02509A
:1019600070B500260025002039490870002469E080
:101970003848025D384800780300FFF7E3FE0504AD
:10198000101A3F545C00022A05D1002600250120D0
:101990003149087002E000202F4908704FE01646D8
:1019A0002E48427028465040054602202A490870B9
:1019B00045E0022A15D0012A13D0032A11D0102A9B
:1019C0000FD0112A0DD0202A0BD0212A09D0222A8B
:1019D00007D0302A05D0502A03D0512A01D0FF2A3F
:1019E00008D103201C4908702846504005461B4872
:1019F000027002E000201849087020E0B01EA042EA
:101A000007DD284650400546E01E1449891C0A544B
:101A100008E0AA4203D104200F49087002E0002028
:101A20000D4908700BE0032A01D100F01BF80020DB
:101A30000949087003E000200749087000BF00BF93
:101A4000601CC4B206480078844291DB70BD00007F
:101A500004000010200000101B00001014000010F3
:101A60000700001001200249087002490870704701
:101A70000400001003000010FFF778FDFFF752FD8F
:101A8000FFF7F6FDFFF790FD47E0244800780028B7
:101A90000BD023480078002802D0FFF761FF01E057
:101AA00000F050F800201D4908701E4800780028FA
:101AB00011D00A201C490870002005E01B49095C70
:101AC0001B4A1154411CC8B20A28F7DBFFF748FF34
:101AD00000201449087017480078002804D0FFF748
:101AE000A5FE00201349087013480078002814D080
:101AF00011480078002810D01048007800280CD039
:101B0000FFF724FF0E4800F033F8FFF715FF002021
:101B100009490870087009490870B6E7020000100A
:101B20000100001000000010070000100A00001063
:101B30002000001003000010060000100500001037
:101B4000B80B00007047000030B504460D460B216D
:101B5000054800F05DF80B21044800F059F82946CB
:101B6000204600F055F830BD201D00002B1D000060
:101B70000349088000BF024909880029FBD170474A
:101B80000800001070B5002614491548006800F0E0
:101B900095F801D2052608E012491148006800F0C6
:101BA0008DF801D2062600E007260D480068FEF7F2
:101BB000DBFC044622460B460BA10D48FEF718FB42
:101BC0000B49881907220B49FEF726FBF01DC6B208
:101BD000074908783146FFF7B7FF70BD0000204184
:101BE0001C0000100000C84220252E3266000000B4
:101BF00034000010140000100449086000BF0349BD
:101C00004969402211400029F9D070470080004006
:101C100030B503460C46002504E018785B1CFFF73E
:101C2000EBFF6D1CA542F8D330BD000010B50029B4
:101C30000AD00878002807D005487844FFF7F8FB59
:101C4000002801D0002010BD0248784410BD0000DB
:101C5000F2010000EA01000070B501250C002D051D
:101C60001C4310D4EC4206D4AC420AD4994200D0B2
:101C700070BD904270BDE94217D4EB4215D4994231
:101C800070BD894270BDEC4206D5AC42F9D58B429D
:101C900000D070BD824270BD6D004C00EC4204D299
:101CA0005C00EC4201D28B4270BD034C30B4FEF7B5
:101CB0008DFF30BC70BD00BF190016040123020067
:101CC000DB050A430DD4DA4203D49A4207D4884292
:101CD0007047D84214D4D94212D488427047804207
:101CE0007047DA4203D59A42F9D5814270475B00CA
:101CF0004200DA4204D24A00DA4201D281427047FD
:101D000010B5024AFEF7AAFF10BD00BF0900160475
:101D100003B402487844844603BC6047FFEBFFFFEE
:101D200041542B534D533D302C332C313838787877
:101D30007878787878788182838485868788898B9B
:101D40008C8D8E8F919293959697999A9C9D9FA03A
:101D5000A2A3A5A7A8AAACAEB0B2B3B5B7B9BCBE92
:101D6000C0C2C5C7C9CCCED1D4D7D9DCDFE2E6E941
:101D7000ECF0F3F7FAFE000002400000000000A0C3
:101D80000000000005400000000000C80000000046
:101D90000C4000000000409C0000000019400000C2
:101DA0000020BCBE0000000034400000BFC91B8EF4
:101DB00000000004B5400000504BCFD06607E2CFD2
:101DC000010000006C4100003E8251AADFEEA73402
:101DD00001000000D9420000DCB5A0E23A301F97B4
:101DE000FFFFFFFFB4450000FD25A0C8E9A3C14FD8
:101DF000FFFFFFFFFF3F0000000000800000000029
:101E0000FF3F00000000008000000000481E0000AE
:101E1000000000102000000004010000681E000007
:101E20002000001088020000200100001C000000BB
:101E300043000000F8FFFFFF0C0000000E00000050
:101E40000F0000002E000000000100000000000054
:101E50000000020A022E00B6D7B5F203000000000F
:081E600000000000000000007A
:04000005000000C136
:00000001FF
